S0180000554152545F484330355F4472697665722E73726563B6
S11300000C943A000C944C000C944C000C944C004E
S11300100C944C000C944C000C944C000C944C002C
S11300200C944C000C944C000C944C000C944C001C
S11300300C944C000C944C000C944C000C944C000C
S11300400C944C000C944C000C944C000C944C00FC
S11300500C944C000C944C000C944C000C944C00EC
S11300600C944C000C944C000C944C000C944C00DC
S11300700C944C0011241FBECFEFD4E0DEBFCDBFE3
S113008021E0A0E0B1E001C01D92A030B207E1F789
S11300900E947B010C94A7010C9400004423B9F145
S11300A0413009F06BC0813089F028F08230C9F00A
S11300B0833011F108952AB381E090E002C0880FE3
S11300C0991F6A95E2F7822B8ABB089527B381E0D2
S11300D090E002C0880F991F6A95E2F7822B87BBD4
S11300E0089524B381E090E002C0880F991F6A95B7
S11300F0E2F7822B84BB089521B381E090E002C033
S1130100880F991F6A95E2F7822B81BB089581308D
S113011091F028F08230D9F0833029F108952AB380
S113012081E090E002C0880F991F6A95E2F78095FC
S113013082238ABB089527B381E090E002C0880F30
S1130140991F6A95E2F78095822387BB089524B3AB
S113015081E090E002C0880F991F6A95E2F78095CC
S1130160822384BB089521B381E090E002C0880F0C
S1130170991F6A95E2F78095822381BB08954423F1
S1130180B9F1413009F06BC0813089F028F0823038
S1130190C9F0833011F108952BB381E090E002C0DF
S11301A0880F991F6A95E2F7822B8BBB089528B3B9
S11301B081E090E002C0880F991F6A95E2F7822BD4
S11301C088BB089525B381E090E002C0880F991F91
S11301D06A95E2F7822B85BB089522B381E090E013
S11301E002C0880F991F6A95E2F7822B82BB08959B
S11301F0813091F028F08230D9F0833029F10895CC
S11302002BB381E090E002C0880F991F6A95E2F752
S1130210809582238BBB089528B381E090E002C0CF
S1130220880F991F6A95E2F78095822388BB089509
S113023025B381E090E002C0880F991F6A95E2F728
S11302408095822385BB089522B381E090E002C0AB
S1130250880F991F6A95E2F78095822382BB0895DF
S1130260813089F028F08230C9F0833011F108958B
S11302702BB381E090E002C0880F991F6A95E2F7E2
S113028082278BBB089528B381E090E002C0880FD9
S1130290991F6A95E2F7822788BB089525B381E008
S11302A090E002C0880F991F6A95E2F7822785BB08
S11302B0089522B381E090E002C0880F991F6A95E7
S11302C0E2F7822782BB089541E062E082E00E9467
S11302D04E00089541E062E082E00E94BF0008956C
S11302E040E062E082E00E94BF00089562E082E0A4
S11302F00E94300108950E9464010E9490010E94AE
S1130300A301813319F40E946A01F9CF823319F4ED
S11303100E947001F4CF833391F70E947601EFCFEE
S113032040E060E083E00E944E0041E061E083E051
S11303300E944E008AB188618AB980B5866880BD02
S113034087E689B908955F9BFECF8CB10895F89430
S1050350FFCFD9
S9030000FC
